:100000000C94A4000C94CC000C94CC000C945B0CCD
:100010000C945B0C0C945B0C0C94CC000C94DE0BDD
:100020000C94CC000C94CC000C94CC000C94CC0020
:100030000C94CC000C94CC000C94CC000C94CC0010
:100040000C94750A0C94CC000C94430A0C941D0A71
:100050000C94CC000C94CC000C94CC000C94CC00F0
:100060000C94BF0A0C94CC0007634236B79BD8A708
:100070001A39685618AEBAAB558C1D3CB7CC5763CD
:10008000BD6DEDFD753EF6177231BF000000803F7B
:1000900008000000BE922449123EABAAAA2ABECD97
:1000A000CCCC4C3E00000080BEABAAAAAA3E000009
:1000B0000000BF000000803F000000000008417801
:1000C000D3BB4387D1133D190E3CC3BD4282AD2B38
:1000D0003E68EC8276BED98FE1A93E4C80EFFFBE30
:1000E00001C4FF7F3F00000000000000000024006A
:1000F00027002A0000000008000201000003040796
:1001000000000000000000000000000023002600A6
:10011000290000000000250028002B00040404042E
:1001200004040404020202020202030303030303A1
:10013000010204081020408001020408102001027E
:1001400004081020180D861111241FBECFEFD8E02F
:10015000DEBFCDBF11E0A0E0B1E0E6E0FCE202C00E
:1001600005900D92AA3BB107D9F723E0AAEBB1E0C5
:1001700001C01D92A13DB207E1F710E0C3EAD0E053
:1001800004C02197FE010E94E115C23AD107C9F7C8
:100190000E94DE0D0C94F6150C9400008CBD9DBDE4
:1001A000089508950895AF92BF92CF92DF92EF9293
:1001B000FF920F931F93CF93DF936C017B018B0111
:1001C000040F151FEB015E01AE18BF08C017D10761
:1001D00059F06991D601ED91FC910190F081E02DEB
:1001E000C6010995892B79F7C501DF91CF911F9140
:1001F0000F91FF90EF90DF90CF90BF90AF90089558
:10020000FC01538D448D252F30E0842F90E0821B1C
:10021000930B541710F0CF96089501970895FC01A1
:10022000918D828D981761F0A28DAE0FBF2FB11DF9
:100230005D968C91928D9F5F9F73928F90E0089551
:100240008FEF9FEF0895FC01918D828D981731F00B
:10025000828DE80FF11D858D90E008958FEF9FEF5F
:100260000895FC01918D228D892F90E0805C9F4F35
:10027000821B91098F739927089584ED92E00E9463
:10028000310121E0892B09F420E0822F089580E0DC
:1002900090E0892B29F00E943D0181110C9400000F
:1002A0000895FC01A48DA80FB92FB11DA35ABF4F0B
:1002B0002C91848D90E001968F739927848FA68965
:1002C000B7892C93A089B1898C91837080648C93B9
:1002D000938D848D981306C00288F389E02D808168
:1002E0008F7D80830895EF92FF920F931F93CF939A
:1002F000DF93EC0181E0888F9B8D8C8D98131AC061
:10030000E889F989808185FF15C09FB7F894EE8947
:10031000FF896083E889F9898081837080648083A4
:100320009FBF81E090E0DF91CF911F910F91FF90EF
:10033000EF900895F62E0B8D10E00F5F1F4F0F7397
:100340001127E02E8C8D8E110CC00FB607FCFACF52
:10035000E889F989808185FFF5CFCE010E9451019E
:10036000F1CFEB8DEC0FFD2FF11DE35AFF4FF08223
:100370009FB7F8940B8FEA89FB8980818062CFCF89
:10038000CF93DF93EC01888D8823B9F0AA89BB89CC
:10039000E889F9898C9185FD03C0808186FD0DC0B7
:1003A0000FB607FCF7CF8C9185FFF2CF808185FFD8
:1003B000EDCFCE010E945101E9CFDF91CF91089599
:1003C000833081F028F4813099F08230A9F00895CB
:1003D0008730A9F08830C9F08430B1F48091800072
:1003E0008F7D03C0809180008F7780938000089577
:1003F00084B58F7784BD089584B58F7DFBCF8091C0
:10040000B0008F778093B00008958091B0008F7D09
:10041000F9CF1F93CF93DF93282F30E0F901EC50F1
:10042000FF4F8491F901E05DFE4FD491F901E45E44
:10043000FE4FC491CC23A9F0162F81110E94E00138
:10044000EC2FF0E0EE0FFF1FEE5EFE4FA591B49192
:100450008FB7F894EC91111108C0D095DE23DC938E
:100460008FBFDF91CF911F910895DE2BF8CFCF92F0
:10047000DF92EF92FF920F931F93CF93DF939091B0
:100480008D039F3F81F48EBD00000DB407FEFDCFAC
:10049000FEB48F2DDF91CF911F910F91FF90EF90C0
:1004A000DF90CF900895D82EF12CC7E0D0E001E086
:1004B00010E0FF0C60E080918D030E940902B801FA
:1004C0000C2E01C0660F0A94EAF76D2180918B0310
:1004D0000E94090261E080918D030E94090220912F
:1004E0008C0330E0F901EC50FF4F8491F901E05D9D
:1004F000FE4FE490F901E45EFE4FC490CC2081F001
:1005000081110E94E001EC2DF0E0EE0FFF1FE85F8B
:10051000FE4FA591B491EC91EE2211F06894F0F8A1
:10052000219708F0C6CFB5CFCF93DF9390E0FC01C1
:10053000E05DFE4F2491845E9E4FFC0184918823F0
:10054000C9F090E0880F991FFC01E651FF4FA5917B
:10055000B491FC01EE5EFE4FC591D49161110DC0C6
:100560009FB7F8948C91209582238C9388812823BF
:1005700028839FBFDF91CF910895623051F49FB7D8
:10058000F8943C91822F809583238C93E8812E2BC5
:10059000EFCF8FB7F894EC912E2B2C938FBFEACF2F
:1005A0003FB7F8948091AE029091AF02A091B00253
:1005B000B091B10226B5A89B05C02F3F19F0019656
:1005C000A11DB11D3FBFBA2FA92F982F8827BC01AD
:1005D000CD01620F711D811D911D43E0660F771FD4
:1005E000881F991F4A95D1F708958F929F92AF92D5
:1005F000BF92CF92DF92EF92FF924B015C010E947B
:10060000D0026B017C010E94D0026C197D098E0919
:100610009F09683E734081059105A8F321E0821A85
:100620009108A108B10888EEC80E83E0D81EE11C2D
:10063000F11C81149104A104B10429F7FF90EF90FB
:10064000DF90CF90BF90AF909F908F9008950895C6
:1006500085ED8093BC008091BC0084FDFCCF10929E
:10066000CD02089520916202260F3327331F2132D5
:100670003105ECF42091CD02FC0190E080E02430C3
:1006800069F082E00895A09162022191AC014E5B75
:100690005D4FA40FB52FB11D2C930196861798F3CB
:1006A00080916202680F6093620280E0089581E0A9
:1006B00008950895E091CF028091CE02E81730F4BA
:1006C000F0E0EE5DFD4F808190E008958FEF9FEFA9
:1006D00008959091CF028091CE022FEF3FEF9817AF
:1006E00048F4E92FF0E0EE5DFD4F208130E09F5FA0
:1006F0009093CF02C90108958091CE029091CF02CC
:10070000891B990B0895CF92DF92EF92FF920F937E
:100710001F93CF93DF937C01CB018A012091D302F9
:10072000222389F0EB016B01C40ED51ECC15DD052B
:1007300069F06991D701ED91FC910190F081E02D74
:10074000C7010995F3CF642F0E943203C801DF91DE
:10075000CF911F910F91FF90EF90DF90CF90089570
:10076000CF93DF931F92CDB7DEB769832091D30279
:100770002223F9F02091D002203258F021E030E01D
:10078000FC013383228390E080E00F90DF91CF91D2
:1007900008958091D102E82FF0E0EE5FFD4F99813E
:1007A00090838F5F8093D1028093D00281E090E0AC
:1007B000ECCF61E0CE0101960E943203F7CF209189
:1007C000D00281E0213208F044C08091CD02811135
:1007D000FCCF8091D20292E09093CD0291E0909371
:1007E000CC029FEF909385021092A7022093A6025D
:1007F000A2E0B2E0E6E8F2E090E0291331C0109206
:10080000A8029091A802880F892B8093A80280915A
:10081000CB02813049F51092CB028091A8028093DF
:10082000BB008091BC0083FDF8CF85EC8093BC00B9
:100830008091CD028230E1F3809185028F3FB1F04B
:10084000809185028032A1F080918502803391F001
:1008500084E01092D1021092D0021092D302089537
:100860003D9131939F5FC9CF85EEE0CF80E0F1CF1E
:1008700082E0EFCF83E0EDCFCF93DF93D82FC62F69
:1008800080918A038F3F59F580917D0390917E037B
:100890002091810331E03093D3022093D202109251
:1008A000D1021092D002DC01ED91FC910190F08117
:1008B000E02D6D2F099580917D0390917E03DC01E1
:1008C000ED91FC910190F081E02D6C2F09958091C4
:1008D0007D0390917E03DF91CF910C94DF03809193
:1008E0008D038F3F21F481E590E00E94CE0060E00F
:1008F00080918A030E9409028D2F8F770E94370210
:100900008C2F0E94370261E080918A03DF91CF91A2
:100910000C94090220910002309101022817390736
:1009200071F49091FF018091FE01981741F0E091E0
:10093000FF01F0E0E254FE4F808190E008958FEFD8
:100940009FEF0895EF92FF920F931F93CF93DF9342
:10095000DC015C96ED90FC905D97E114F10479F474
:1009600081E090E013969C938E93129790E080E044
:10097000DF91CF911F910F91FF90EF9008955196C5
:10098000ED91FC91529750968C915097982F90959D
:100990000FB75E962C915E97122F127021FD609515
:1009A000F8942081112319F1282B2083E701219746
:1009B000F1F728E0462F50E0308160FF1AC0382B55
:1009C0003083E7012197F1F7BA01759567952150BA
:1009D00089F7112381F08081892380830FBF5C9682
:1009E0008D919C910197F1F781E090E0C1CF29238F
:1009F000DCCF3923E5CF9081892BEFCF2091000206
:100A0000309101022817390771F48091FE0120917D
:100A1000FF0190E0805C9F4F821B910960E470E0D1
:100A20000E948415089590E080E0089520910002CE
:100A30003091010228173907B9F49091FF01809194
:100A4000FE01981789F0E091FF01F0E0E254FE4FBB
:100A500080812091FF0130E02F5F3F4F2F733327BC
:100A60002093FF0190E008958FEF9FEF089590E0AD
:100A700080E008958091CD028111FCCF81E08093C8
:100A8000CD028093CC029FEF909385021092A70233
:100A9000940F9093A6028093A8028091A802660FFB
:100AA000682B6093A8028091CB02813019F51092D7
:100AB000CB028091A8028093BB008091BC0083FD93
:100AC000F8CF85EC8093BC008091CD028130E1F3BA
:100AD0008091A702841710F44091A702A6E8B2E023
:100AE000E2E2F2E080E0841307C01092CF0280932C
:100AF000CE02089585EEE6CF9D9191938F5FF3CF5F
:100B0000CF93C82F80918A038F3FA9F580917D03F1
:100B100090917E032091810331E03093D3022093A2
:100B2000D2021092D1021092D002DC01ED91FC9120
:100B30000190F081E02D6C2F099580917D039091BB
:100B40007E030E94DF0341E06091810380917D0379
:100B500090917E030E943A0580917D0390917E03DF
:100B6000DC01ED91FC910284F385E02D0995C82FFD
:100B70008C2FCF91089580918D038F3F21F481E5D3
:100B800090E00E94CE0060E080918A030E940902FA
:100B90008C2F0E94370280E00E943702C82F61E04C
:100BA00080918A030E940902E3CFCF93DF93C82F7D
:100BB00080918A038F3F09F046C080917D03909118
:100BC0007E032091810331E03093D3022093D2023F
:100BD0001092D1021092D002DC01ED91FC910190B3
:100BE000F081E02D6C2F099580917D0390917E031B
:100BF0000E94DF0342E06091810380917D03909128
:100C00007E030E943A0580917D0390917E03DC0172
:100C1000ED91FC910284F385E02D0995C82F809118
:100C20007D0390917E03DC01ED91FC910284F385BC
:100C3000E02D099520E03C2FE901C82BD92BCE01EE
:100C4000DF91CF91089580918D038F3F21F481E54D
:100C500090E00E94CE0060E080918A030E94090229
:100C60008C2F0E94370280E00E943702C82F80E05C
:100C70000E943702DC2FC82F61E080918A030E9416
:100C80000902DDCF0E94D505982789279827089566
:100C9000CF93DF9380918A038F3F09F05BC010925E
:100CA000CF021092CE021092D1021092D002109276
:100CB000CD0281E08093CC021092CB0261E082E110
:100CC0000E94090261E083E10E9409028091B9005B
:100CD0008E7F8093B9008091B9008D7F8093B90099
:100CE00080E28093B80085E48093BC0081ED90E0C1
:100CF0009093CA028093C90282ED90E09093C8025B
:100D00008093C70280ED0E94800590E0B0E0A0E0F3
:100D10008093820390938303A0938403B09385030D
:100D200080369105A105B10509F04CC166EB80EE56
:100D30000E943C046CE271E080E090E00E94F502C9
:100D400083EF0E94800580FF54C064E670E080E07D
:100D500090E0F4CF61E00E94090261E080918A0393
:100D60000E94940280918D038F3F09F034C0CFB769
:100D7000F8948091C602811127C0E6E2F1E08491E7
:100D8000EAE3F1E09491E82FF0E0EE0FFF1FE65167
:100D9000FF4FA591B491EC91E92321F461E08AE041
:100DA0000E94090261E08AE00E9494028CB5806191
:100DB0008CBD8CB580648CBD61E08DE00E94940296
:100DC00061E08BE00E9494028091C6028F5F809365
:100DD000C602CFBF97CF61E00E94940261E080918C
:100DE0008B030E94940260E080918C030E94940225
:100DF00089CF88E80E94420690938F0380938E03E8
:100E00008AE80E94420690939103809390038CE8B5
:100E10000E94420690939303809392038EE80E946F
:100E20004206909395038093940380E90E944206C2
:100E3000909397038093960382E90E9442069093D1
:100E400099038093980384E90E94420690939B0340
:100E500080939A0386E90E94420690939D038093B3
:100E60009C0388E90E94420690939F0380939E030F
:100E70008AE90E9442069093A1038093A0038CE923
:100E80000E9442069093A3038093A2038EE90E94DE
:100E900042069093A5038093A40381EA0E948005F3
:100EA0008093A60381EE0E9442069093A80380934C
:100EB000A70383EE0E9480058093A90384EE0E941D
:100EC0008005C82F85EE0E94800590E1C99F9001A2
:100ED00011248F70282B3093AB032093AA0386EE46
:100EE0000E948005C82F85EE0E94800590E1C99F71
:100EF000E001112490E024E0959587952A95E1F78B
:100F00008C2B9D2B9093AD038093AC0387EE0E94B6
:100F100080058093AE038DEE8093B0038091B10382
:100F20008F71806A8093B1038091AF03807C80933E
:100F3000AF0360E084EF0E943C046091B1036295CE
:100F40006695677082EF0E943C048091AF03682F22
:100F5000677090E2699FB0011124282F269526958D
:100F60002695277094E0299F90011124622B87FB1E
:100F7000882780F9682B85EF0E943C048091B0039C
:100F8000682F677090E2699FB0011124282F269581
:100F900026952695277094E0299F90011124622BB5
:100FA0008295869586958370682B84EF0E943C0419
:100FB00064E670E080E090E00E94F50281E0DF915D
:100FC000CF91089580E0FBCF8F929F92AF92BF9216
:100FD000CF92DF92EF92FF9280918A038F3F09F0C8
:100FE000E9C080917D0390917E032091810331E0DF
:100FF0003093D3022093D2021092D1021092D002E9
:10100000DC01ED91FC910190F081E02D6AEF0995F2
:1010100080917D0390917E030E94DF0343E0609105
:10102000810380917D0390917E030E943A05809117
:101030007D0390917E03DC01ED91FC910284F385A8
:10104000E02D09954C01990FAA08BB08BA2CA92CD0
:10105000982C882480917D0390917E03DC01ED9192
:10106000FC910284F385E02D0995092E000CAA0B52
:10107000BB0B882A992AAA2ABB2ABA2CA92C982CFD
:10108000882480917D0390917E03DC01ED91FC9199
:101090000284F385E02D0995092E000CAA0BBB0BE9
:1010A0006C017D01C828D928EA28FB2860E070E09F
:1010B00080EC9FE7C114D104B0E8EB06F10409F419
:1010C00070C080918E0390918F03B0E0A0E08D2CD2
:1010D0009E2CAF2CBB24A7FCBA94881A990AAA0AA2
:1010E000BB0A37E0F594E794D794C7943A95D1F7C3
:1010F000880F991FAA1FBB1FA7019601281B390B38
:101100004A0B5B0BA0919003B09191030E94C5150F
:101110006B017C015BE0F594E794D794C7945A95F2
:10112000D1F7A5019401C501B4010E9474159B017A
:10113000AC016CE055954795379527956A95D1F7A1
:10114000A0919203B09193030E94C5159B01AC013D
:101150007EE055954795379527957A95D1F72C0DD3
:101160003D1D4E1D5F1D20938603309387034093E2
:10117000880350938903A5E0B0E00E94BA15605837
:101180007F4F8F4F9F4F672F782F892F992787FD8C
:101190009A950E94CD1220E030E048EC52E40E9483
:1011A0002A12FF90EF90DF90CF90BF90AF909F906A
:1011B0008F90089580918D038F3F21F481E590E019
:1011C0000E94CE0060E080918A030E9409028AEFAB
:1011D0000E94370280E00E94370290E0B0E0A0E079
:1011E000CC24D82EE92EFA2E80E00E943702C82A9D
:1011F000FE2CED2CDC2CCC2480E00E943702C82A87
:1012000061E080918A030E94090250CFFC010190A5
:101210000020E9F73197AF01481B590BBC0184ED61
:1012200092E00C94D3008F929F92AF92BF920F9353
:101230001F93CF93DF93CDB7DEB7A1970FB6F89486
:10124000DEBF0FBECDBF19A2423008F44AE08E01C6
:101250000F5D1F4F842E912CB12CA12CA501940160
:101260000E949815E62FB901CA01EA30F4F4E05D56
:10127000D801EE938D01232B242B252B79F790E0B9
:1012800080E0109719F0CD010E940609A1960FB6D3
:10129000F894DEBF0FBECDBFDF91CF911F910F91AC
:1012A000BF90AF909F908F900895E95CE1CFCF936E
:1012B000DF934AE00E941309EC0186E391E00E946B
:1012C00006098C0F9D1FDF91CF910895CF93DF9377
:1012D0000E940609EC0186E391E00E9406098C0F4A
:1012E0009D1FDF91CF910895CF93DF93682F70E01A
:1012F00090E080E04AE00E941309EC0186E391E06F
:101300000E9406098C0F9D1FDF91CF9108958F9247
:101310009F92AF92BF92CF92DF92EF92FF920F9384
:101320001F93CF93DF93EC0161E083E00E940902F9
:10133000A895E8E3F1E06491E4E2F1E0E491F0E003
:10134000EE0FFF1FE85FFE4F8591949100E211EAD6
:1013500027E030E0462F0E94D30C6B017C01C114C2
:10136000D104E104F10499F08FEFC81AD80AE80A11
:10137000F80A84E0CC0CDD1CEE1CFF1C8A95D1F72A
:1013800093E0F694E794D794C7949A95D1F7A895EB
:1013900089E391E00E940609C701B6010E9457093E
:1013A000C701B6012AE030E040E050E00E94981505
:1013B00049015A01A895CE010E94A21190E0B0E027
:1013C000A0E088159905AA05BB0588F1CE010E9409
:1013D000A21190E0B0E0A0E06C017D01C818D9082E
:1013E000EA08FB0885E491E00E940609C701B601FE
:1013F0000E9457098FEFC816D104E104F10409F0E7
:10140000C8F489E591E00E940609C701B6010E946F
:101410005709C601DF91CF911F910F91FF90EF9077
:10142000DF90CF90BF90AF909F908F90089590E005
:1014300080E0F0CF8FEF90E0EDCF1F920F920FB6CC
:101440000F9211242F933F934F935F936F937F934A
:101450008F939F93AF93BF93EF93FF9384ED92E0AD
:101460000E945101FF91EF91BF91AF919F918F9198
:101470007F916F915F914F913F912F910F900FBE90
:101480000F901F9018951F920F920FB60F92112474
:101490002F938F939F93EF93FF93E091E402F0914A
:1014A000E5028081E091EA02F091EB0282FD1BC02F
:1014B00090818091ED028F5F8F732091EE028217F1
:1014C00041F0E091ED02F0E0EC52FD4F958F8093FA
:1014D000ED02FF91EF919F918F912F910F900FBE91
:1014E0000F901F9018958081F4CF1F920F920FB626
:1014F0000F9211242F933F938F939F93AF93BF939A
:101500008091AA029091AB02A091AC02B091AD0281
:101510003091A90226E0230F2D3758F50296A11D20
:10152000B11D2093A9028093AA029093AB02A093CD
:10153000AC02B093AD028091AE029091AF02A09147
:10154000B002B091B1020196A11DB11D8093AE020F
:101550009093AF02A093B002B093B102BF91AF914C
:101560009F918F913F912F910F900FBE0F901F90E1
:10157000189529E8230F0396A11DB11DD2CF1F9204
:101580000F920FB60F9211242F933F934F935F93B7
:101590006F937F938F939F93AF93BF93EF93FF933B
:1015A0008091B900887F803609F44AC0F0F588320E
:1015B00009F4A7C018F5803109F49BC0B8F488235A
:1015C00009F4F9C0883009F494C0FF91EF91BF91FC
:1015D000AF919F918F917F916F915F914F913F91CB
:1015E0002F910F900FBE0F901F901895883109F41E
:1015F00088C0803251F78093850214C0803409F48A
:101600009DC040F48033B9F38833F9F680938502A6
:1016100085ECB0C0803509F485C0883509F496C0E2
:10162000883499F60E942803D0CF883909F48CC0F9
:1016300038F5883729F050F4883611F0803729F6CC
:1016400083E08093CD021092840257C0883809F459
:101650007BC0803919F0803809F0B7CF80918402BF
:10166000803208F071C0E091840281E08E0F809397
:1016700084028091BB00F0E0EC59FD4F80833DC0B7
:10168000803B39F0E0F4803A09F479C0883A09F0F7
:101690009CCF84E08093CD0210926302109262028C
:1016A000E091C902F091CA0209958091620281110C
:1016B0000FC081E0809362021092420209C0803C18
:1016C00009F4A6CF883C09F4A3CF883B09F07DCF6D
:1016D000E091630281E08E0F80936302F0E0EE5BA5
:1016E000FD4F80818093BB009091630280916202E4
:1016F00029C08091A8028093BB0085EC8093BC0038
:1017000064CF9091A7028091A602981758F5E091B6
:10171000A70281E08E0F8093A702F0E0EA57FD4F09
:101720008081E9CFE091A70281E08E0F8093A7022C
:101730008091BB00F0E0EA57FD4F80839091A702B3
:101740008091A6029817C8F285E8D8CFE091A70249
:1017500081E08E0F8093A7028091BB00F0E0EA57F2
:10176000FD4F80838091CC0281115CCF81E080931A
:10177000CB0284EA8093BC001092CD0226CF85EC88
:101780008093BC001092CD0280918402803230F4AC
:10179000E0918402F0E0EC59FD4F108260918402E8
:1017A00070E0E091C702F091C80284E692E00995EA
:1017B000109284020ACF1092850234CF1F920F92AA
:1017C0000FB60F9211240F931F932F933F934F93B4
:1017D0005F936F937F938F939F93AF93BF9340914A
:1017E0008400509185008091B9029091BA02B09B1B
:1017F0000EC021E026BB9C012F5F3F4F3093BA0201
:101800002093B90241150AEF500708F4C90120914D
:10181000BB023091BC022F5F3F4F6091B3027091C9
:10182000B4022617370708F441C01092BC02109288
:10183000BB02B0E0A0E0DC0199278827840F951F48
:10184000A11DB11D4091B5025091B6026091B70241
:101850007091B8028C019D01041B150B260B370BF0
:10186000B901A8014093BE025093BF026093C00229
:101870007093C1028093B5029093B602A093B70211
:10188000B093B80281E08093BD02BF91AF919F9168
:101890008F917F916F915F914F913F912F911F9108
:1018A0000F910F900FBE0F901F9018953093BC02B0
:1018B0002093BB02EACF1F920F920FB60F92112412
:1018C0002F933F934F935F936F937F938F939F9348
:1018D000AF93BF93EF93FF93E0910002F091010269
:1018E000309749F0A685B7858585968D91FF14C000
:1018F0009C918923A1F4FF91EF91BF91AF919F91AA
:101900008F917F916F915F914F913F912F910F90A8
:101910000FBE0F901F9018959C91892361F7A389A2
:10192000B4899C918589809589238C938689978930
:101930000197F1F7608D718DA685B785558538E0E3
:1019400020E0CB010197F1F7822F90E095958795E4
:10195000282F4C91452309F02068315091F7868D4E
:1019600081FD20958091FE0190E001968F7399276B
:101970003091FF01381799F0A091FE01B0E0A25418
:10198000BE4F2C938093FE01828D938D0197F1F7CA
:10199000A389B4898C919589892B8C93ACCF868D42
:1019A0008160868FF1CFCF92DF92EF92FF920F93FB
:1019B0001F93E82FF92F05C00150110921093109A2
:1019C00061F1908196239417B9F305C00150110974
:1019D0002109310911F1908196239413F7CFC12C7D
:1019E000D12CE12CF12C0AC08FEFC81AD80AE80AD2
:1019F000F80A0C151D052E053F0579F08081862318
:101A0000841791F36C2D7D2D8E2D9F2D1F910F919D
:101A1000FF90EF90DF90CF90089560E070E080E05D
:101A200090E01F910F91FF90EF90DF90CF9008957D
:101A30001092D7021092D60288EE93E0A0E0B0E0B8
:101A40008093D8029093D902A093DA02B093DB027C
:101A500024E031E03093D5022093D40225EC30E02D
:101A60003093E1022093E00224EC30E03093E30273
:101A70002093E20220EC30E03093E5022093E40270
:101A800021EC30E03093E7022093E60222EC30E0D4
:101A90003093E9022093E80226EC30E03093EB0229
:101AA0002093EA021092ED021092EE021092EF02E1
:101AB0001092F002109274031092730380937503D6
:101AC00090937603A0937703B093780326E131E0F7
:101AD00030937203209371031092B5031092B403F4
:101AE0008093B6039093B703A093B803B093B90360
:101AF00088E291E09093B3038093B2031092C903FC
:101B00001092C8031092CB031092CA031092CD0317
:101B10001092CC031092CF031092CE036091D003A9
:101B20006E7F6D7F6093D0036695617081E068275A
:101B300087E00E94090261E087E00E949402E7E3E7
:101B4000F1E0E491E093C203E3E2F1E0E491F0E03C
:101B5000EE0FFF1FEE5EFE4F859194919093C403AC
:101B60008093C30360E086E00E9494028091D003DA
:101B700081FD04C061E086E00E94090286E0809356
:101B8000BE03E6E3F1E0E491E093BF03E2E2F1E0BB
:101B9000E491F0E0EE0FFF1FE85FFE4F8591949116
:101BA0009093C1038093C0038FEF80938A03809347
:101BB0008B0380938C0380938D030895CF93DF93E1
:101BC000CDB7DEB764970FB6F894DEBF0FBECDBFBA
:101BD000789484B5826084BD84B5816084BD85B508
:101BE000826085BD85B5816085BD80916E00816014
:101BF00080936E00109281008091810082608093BA
:101C000081008091810081608093810080918000BB
:101C10008160809380008091B10084608093B100E6
:101C20008091B00081608093B00080917A008460E0
:101C300080937A0080917A00826080937A0080910C
:101C40007A008E7F80937A0080917A0080688093FA
:101C50007A001092C10061E087E00E94940260E087
:101C600087E00E94090262E088E00E94940261E03D
:101C70008DE00E94940260E08DE00E940902E091F4
:101C8000E402F091E50282E08083E091E002F091CD
:101C9000E1021082E091E202F091E30287E68083A4
:101CA0001092EC02E091E802F091E90286E0808374
:101CB000E091E602F091E702808180618083E0910B
:101CC000E602F091E702808188608083E091E6027D
:101CD000F091E702808180688083E091E602F091D4
:101CE000E70280818F7D808389E691E00E9466090A
:101CF00087E78093810381E793E090937E0380934D
:101D00007D030E944806882309F4E6C282E791E039
:101D10000E94660968EC83E090E00E94AA1188E0C6
:101D200090E00E94A211833679F060E090E080E0BC
:101D30000E94AA1160ED81E090E00E94AA1163E682
:101D400088E090E00E94AA111E0123E1220E311CBE
:101D5000CE0109969C8B8B8B07E513E598E1E8E2B1
:101D60000FB6F894A895909360000FBEE0936000C2
:101D700084ED92E00E94310184ED92E00E943101F5
:101D8000892B09F49BC284ED92E00E940F018235F9
:101D9000910509F07BC28CE791E00E946609A89545
:101DA0008BE891E00E94060990E080E00E94A21179
:101DB0000E94740986E991E00E94060981E090E0A2
:101DC0000E94A2110E94740981EA91E00E94060912
:101DD00082E090E00E94A2110E9474098CEA91E0D6
:101DE0000E94060983E090E00E94A2110E947409FB
:101DF000FFEFFD8790E080E00E94A211811177C281
:101E00001A8B81E090E00E948709F82E8E8783E08C
:101E100090E00E94A2118F1508F067C261E087E090
:101E20000E9409027E0123E0E21AF108CC24C39447
:101E300032E0D32E49EFB42E56E0A52E6BE0962E5D
:101E400077E0872E1092BC021092BB021092BA0269
:101E50001092B9021092B5021092B6021092B70217
:101E60001092B8021092BD02809180008093C5024A
:101E7000809181008093C4021092810010928000B2
:101E80001092850010928400C6BA10926F00809163
:101E9000B0008093C3028091B1008093C20210927F
:101EA000B100D092B000B092B300A092B202D7BA03
:101EB0001092B2008DE790E09093B4028093B30249
:101EC0009FB7F894D3BC8091B2028093B100D092B6
:101ED0007000892D8150F1F7809281009FBFA895F5
:101EE0008091BD028823E1F3A8952FB7F894609103
:101EF000BE027091BF028091C0029091C102109207
:101F0000BD022FBFF70161937193819391937F017C
:101F10000E9457091092B100109270008091C30284
:101F20008093B0008091C2028093B1001092810032
:101F30008091C502809380008091C40280938100CB
:101F4000A8958B899C89E816F90609F07BCF60E09B
:101F500087E00E94090269817A818B819C81CD8012
:101F6000DE80EF80F8846C0D7D1D8E1D9F1DC98461
:101F7000DA84EB84FC846C0D7D1D8E1D9F1D23E097
:101F800030E040E050E00E949815CA01B9010E947B
:101F9000CB126B017C0120E030E040E850E40E946D
:101FA000EF134B015C0120E030E040E450E4C70156
:101FB000B6010E94EF132B013C01A8952FEF38E7E3
:101FC0004FE45EE3C501B4010E9482134B015C0142
:101FD0002FEA35E24CE050E4C301B2010E948213C3
:101FE0009B01AC01C501B4010E94B8114B015C0119
:101FF000A7019601C701B6010E94821325E83BE6BE
:1020000047E752E40E9482139B01AC01C501B40171
:102010000E94B9114B015C0126E636E94DE854E413
:10202000C701B6010E9482139B01AC01C501B40136
:102030000E94B81120E03BE947EC57E40E94B91137
:10204000FF24F39420E030E04FE753E40E947D1337
:1020500018160CF0F12CF194FF86A8950E94E40765
:102060006B017C0120E030E048E452E40E947D13E3
:1020700018160CF444C120E030E048E452ECC701EB
:10208000B6010E94251287FD3AC1C701B6010E9420
:102090009C12698BA8950E94E4078DEF0E94D505DC
:1020A000B0E0A0E08115E0E89E07A105B10509F4C4
:1020B00028C14090860350908703609088037090F9
:1020C0008903FCE25F1AF1E06F0A71086C017D017F
:1020D0004EE0CC0CDD1CEE1CFF1C4A95D1F7809124
:1020E000AA039091AB03092E000CAA0BBB0B54E181
:1020F000880F991FAA1FBB1F5A95D1F7C81AD90A72
:10210000EA0AFB0AA091AC03B091AD03A3019201CE
:102110000E94C515C61AD70AE80AF90A20E4D20EA9
:10212000E11CF11C6FE0F594E794D794C7946A958D
:10213000D1F7A091A903B0E092010E94BA154B011A
:102140005C017BE0B594A794979487947A95D1F736
:1021500080E8980EA11CB11CA091AE030A2E000CC1
:10216000BB0B0E94C515EAE0959587957795679515
:10217000EA95D1F7A50194010E9474159B01AC0169
:10218000FAE05595479537952795FA95D1F7405E32
:102190005F4FA091A703B091A8030E94C515705E80
:1021A0008F4F9F4FAEE09595879577956795AA9548
:1021B000D1F7A70196010E9474156B017C01BFE065
:1021C0009595879577956795BA95D1F79B01AC0161
:1021D0000E9474159B01AC0187E055954795379592
:1021E00027958A95D1F7A091A603B0E00E94BA1571
:1021F00024E095958795779567952A95D1F7C61A26
:10220000D70AE80AF90AF7FE03C0C12CD12C7601DF
:1022100091E0C916D104E10499E1F9062CF0C12C32
:10222000D12CE12C39E1F32EC701B6012CE09595B4
:102230008795779567952A95D1F70E94CD1220E072
:1022400030E040E85AE30E9482130E949C12660F1D
:10225000688BA89587EB91E00E946609A89584EDAC
:1022600092E00E94C001A8957E01EDE0EE0EF11C07
:10227000F701D1907F016D2D84ED92E00E947301F2
:102280008D2D0E947409E214F30491F784ED92E01D
:102290000E940F018335910529F460E090E080E011
:1022A0000E94AA1184ED92E00E940F0187359105EA
:1022B00029F461E090E080E00E94AA11A89580E0F6
:1022C00090E0892B09F44ACD0E943D01882309F44E
:1022D00043CD0E94000040CD86E7809381030E9499
:1022E0004806882309F416CD11CD1F86B6CE82E0AC
:1022F00090E00E9487098E871F860A8BAECE6FEF13
:10230000C8CE60E070E080EC9FE79FCF88E291E06C
:102310009093B3038093B2038091000290910102E5
:10232000825B934071F4E091C503F091C603908104
:102330008091C703809589238083109201021092B7
:1023400000020895F999FECF92BD81BDF89A9927B0
:1023500080B50895262FF999FECF1FBA92BD81BD91
:1023600020BD0FB6F894FA9AF99A0FBE0196089517
:102370005058BB27AA270E94D0110C9443130E94E7
:10238000351338F00E943C1320F039F49F3F19F4C4
:1023900026F40C9432130EF4E095E7FB0C942C1306
:1023A000E92F0E94541358F3BA1762077307840782
:1023B000950720F079F4A6F50C9476130EF4E095C9
:1023C0000B2EBA2FA02D0B01B90190010C01CA01EF
:1023D000A0011124FF27591B99F0593F50F4503E9A
:1023E00068F11A16F040A22F232F342F4427585F8C
:1023F000F3CF469537952795A795F0405395C9F7A4
:102400007EF41F16BA0B620B730B840BBAF091505B
:10241000A1F0FF0FBB1F661F771F881FC2F70EC0FA
:10242000BA0F621F731F841F48F4879577956795CD
:10243000B795F7959E3F08F0B0CF9395880F08F0B9
:102440009927EE0F9795879508950E94081308F431
:1024500081E008950E943E120C9443130E943C13A5
:1024600058F00E94351340F029F45F3F29F00C9496
:102470002C1351110C9477130C9432130E945413A3
:1024800068F39923B1F3552391F3951B550BBB27A3
:10249000AA2762177307840738F09F5F5F4F220FE8
:1024A000331F441FAA1FA9F335D00E2E3AF0E0E8DF
:1024B00032D091505040E695001CCAF72BD0FE2F29
:1024C00029D0660F771F881FBB1F261737074807BD
:1024D000AB07B0E809F0BB0B802DBF01FF27935875
:1024E0005F4F3AF09E3F510578F00C942C130C94FA
:1024F00077135F3FE4F3983ED4F38695779567951D
:10250000B795F7959F5FC9F7880F911D96958795A9
:1025100097F90895E1E0660F771F881FBB1F6217C8
:1025200073078407BA0720F0621B730B840BBA0B86
:10253000EE1F88F7E09508950E945C1388F09F577E
:1025400098F0B92F9927B751B0F0E1F0660F771FD7
:10255000881F991F1AF0BA95C9F714C0B13091F0CD
:102560000E947613B1E008950C947613672F782FAC
:102570008827B85F39F0B93FCCF386957795679592
:10258000B395D9F73EF490958095709561957F4FFE
:102590008F4F9F4F0895E89409C097FB3EF49095A4
:1025A0008095709561957F4F8F4F9F4F9923A9F02C
:1025B000F92F96E9BB279395F695879577956795BB
:1025C000B795F111F8CFFAF4BB0F11F460FF1BC0FF
:1025D0006F5F7F4F8F4F9F4F16C0882311F096E992
:1025E00011C0772321F09EE8872F762F05C0662340
:1025F00071F096E8862F70E060E02AF09A95660FF9
:10260000771F881FDAF7880F9695879597F90895B1
:10261000990F0008550FAA0BE0E8FEEF16161706F3
:10262000E807F907C0F012161306E407F50798F05B
:10263000621B730B840B950B39F40A2661F0232B74
:10264000242B252B21F408950A2609F4A140A695F0
:102650008FEF811D811D089597F99F6780E870E0D5
:1026600060E008959FEF80EC089500240A94161608
:10267000170618060906089500240A941216130670
:10268000140605060895092E0394000C11F48823FE
:1026900052F0BB0F40F4BF2B11F460FF04C06F5F1A
:1026A0007F4F8F4F9F4F089557FD9058440F551FF0
:1026B00059F05F3F71F04795880F97FB991F61F0C4
:1026C0009F3F79F087950895121613061406551F3B
:1026D000F2CF4695F1DF08C0161617061806991FA7
:1026E000F1CF86957105610508940895E894BB279C
:1026F00066277727CB0197F908950E94081308F4FD
:102700008FEF08950E9495130C9443130E94351384
:1027100038F00E943C1320F0952311F00C942C13F8
:102720000C94321311240C9477130E94541370F3F9
:10273000959FC1F3950F50E0551F629FF001729F66
:10274000BB27F00DB11D639FAA27F00DB11DAA1F75
:10275000649F6627B00DA11D661F829F2227B00DC2
:10276000A11D621F739FB00DA11D621F839FA00D4D
:10277000611D221F749F3327A00D611D231F849F9D
:10278000600D211D822F762F6A2F11249F575040F4
:102790009AF0F1F088234AF0EE0FFF1FBB1F661F6F
:1027A000771F881F91505040A9F79E3F510580F038
:1027B0000C942C130C9477135F3FE4F3983ED4F3FE
:1027C000869577956795B795F795E7959F5FC1F7DC
:1027D000FE2B880F911D9695879597F90895FA011C
:1027E000EE0FFF1F309621053105A1F1611571052E
:1027F00061F48038BFE39B0749F168949038810504
:1028000061F08038BFEF9B0741F099234AF5FF3F05
:10281000E1053105210519F1E8940894E795D901FE
:10282000AA2329F4AB2FBE2FF85FD0F310C0FF5FAF
:1028300070F4A695E0F7F73950F019F0FF3A38F444
:102840009F779F930DD00F9007FC9058089546F006
:102850000C94321360E070E080E89FE308954FE746
:102860009F775F934F933F932F930E94EA142F918A
:102870003F914F915F910E9482130C94471429F469
:1028800016F00C942C130C9476130C9432130E94B3
:102890005C13A8F39638A0F707F80F92E8942BE39F
:1028A0003AEA48EB5FE70E9498130F920F920F925B
:1028B0004DB75EB70F920E943215E8E6F0E00E9435
:1028C00079144F915F91EF91FF91E595EE1FFF1FF6
:1028D00049F0FE57E0684427EE0F441FFA95E1F7F0
:1028E0004195550B0E94AC140F9007FE0C94A01458
:1028F0000895DF93CF931F930F93FF92EF92DF9290
:102900007B018C01689406C0DA2EEF010E949513BA
:10291000FE01E894A5912591359145915591A6F335
:10292000EF010E94D011FE019701A801DA9469F726
:10293000DF90EF90FF900F911F91CF91DF9108955D
:102940009B01AC0160E070E080E89FE30C942A12E8
:102950000C942C130C9466150E945C13D8F39923E5
:10296000C9F3940F511DA3F39150504094F059F0C6
:10297000882332F0660F771F881F91505040C1F7AF
:102980009E3F51052CF7880F911D9695879597F9D5
:1029900008955F3FACF0983E9CF0BB2786957795F5
:1029A0006795B79508F4B1609395C1F7BB0F58F7D9
:1029B00011F460FFE8CF6F5F7F4F8F4F9F4FE3CFE2
:1029C0000C94771316F00C9466150C9432136894DB
:1029D0000C942C130E945C13A8F39923C1F3AEF35B
:1029E000DF93CF931F930F93FF92C92FDD27882387
:1029F0002AF02197660F771F881FDAF720E030E072
:102A000040E85FEB9FE3883920F0803E38F0219664
:102A10008F770E94B911E0E9F0E004C00E94B9117B
:102A2000EDEBF0E00E9479148B01BE01EC01FB2E6E
:102A30006F5771097595771F880B990B0E94CD12FE
:102A400028E132E741E35FE30E949513AF2D98013F
:102A5000AE01FF900F911F91CF91DF910E94D01195
:102A60000C944313FA01DC01AA0FBB1F9B01AC01BC
:102A7000BF5728F4222733274427507820C0B75166
:102A800090F4AB2F0024469537952795011CA3950C
:102A9000D2F3002071F0220F331F441FB395DAF3F5
:102AA0000ED00C94B81161307105A0E88A07B946C0
:102AB00030F49B01AC016627772788279078309601
:102AC00021F0208331834283538308959F3F31F067
:102AD000915020F4879577956795B795880F911D4C
:102AE0009695879597F90895DB018F939F930E94A0
:102AF000BA15BF91AF91A29F800D911DA39F900D1C
:102B0000B29F900D1124089597FB072E16F40094A0
:102B100007D077FD09D00E94CD1507FC05D03EF403
:102B2000909581959F4F0895709561957F4F089579
:102B3000A1E21A2EAA1BBB1BFD010DC0AA1FBB1FC1
:102B4000EE1FFF1FA217B307E407F50720F0A21B33
:102B5000B30BE40BF50B661F771F881F991F1A94A0
:102B600069F760957095809590959B01AC01BD01CA
:102B7000CF0108950E94E715A59F900DB49F900D79
:102B8000A49F800D911D11240895B7FF0C94BA15D0
:102B90000E94BA15821B930B0895AA1BBB1B51E11F
:102BA00007C0AA1FBB1FA617B70710F0A61BB70BBD
:102BB000881F991F5A95A9F780959095BC01CD0162
:102BC0000895EE0FFF1F0590F491E02D0994A29F48
:102BD000B001B39FC001A39F700D811D1124911DF1
:102BE000B29F700D811D1124911D089510E0C3EA5C
:102BF000D0E004C0FE010E94E1152196C43AD1073D
:062C0000C9F7F894FFCFB4
:102C0600000000007301D3000001C00131010F0173
:102C1600230100000000B0038303370559037C033A
:102C260069035A0300000000A204D30037055903C4
:102C3600FE0416058A040D0A005261772070756C31
:102C460073653A200043616C63756C61746564203A
:102C56006865696768743A200052657475726E20FB
:102C66006865696768743A20005072696E74696EA7
:102C76006700424D4520626567696E004461746174
:102C86002072657175657374656400454550524FD1
:102C96004D20303A2000454550524F4D20313A20C4
:102CA60000454550524F4D20323A2000454550527E
:0A2CB6004F4D20333A200054000077
:107800000C94343C0C94513C0C94513C0C94513CE1
:107810000C94513C0C94513C0C94513C0C94513CB4
:107820000C94513C0C94513C0C94513C0C94513CA4
:107830000C94513C0C94513C0C94513C0C94513C94
:107840000C94513C0C94513C0C94513C0C94513C84
:107850000C94513C0C94513C0C94513C0C94513C74
:107860000C94513C0C94513C11241FBECFEFD8E036
:10787000DEBFCDBF11E0A0E0B1E0EAE8FFE702C063
:1078800005900D92A230B107D9F712E0A2E0B1E065
:1078900001C01D92AD30B107E1F70E942D3D0C945F
:1078A000C33F0C94003C982F95959595959595958B
:1078B000905D8F708A307CF0282F295A8091C0000B
:1078C00085FFFCCF9093C6008091C00085FFFCCF60
:1078D0002093C6000895282F205DF0CF982F809127
:1078E000C00085FFFCCF9093C6000895EF92FF92F1
:1078F0000F931F93EE24FF2487018091C00087FD22
:1079000017C00894E11CF11C011D111D81E2E8164D
:1079100081EAF80687E0080780E0180770F3E09135
:107920000401F091050109958091C00087FFE9CF1E
:107930008091C6001F910F91FF90EF9008950E94D3
:10794000763C982F8091C00085FFFCCF9093C600B5
:1079500091362CF490330CF09053892F089597555D
:10796000892F08951F930E949F3C182F0E949F3CCF
:107970001295107F810F1F9108951F93182F882350
:1079800021F00E94763C1150E1F71F9108951F935A
:10799000182F0E94763C803249F0809103018F5F5E
:1079A000809303018530C1F01F9108958091C0003C
:1079B00085FFFCCF84E18093C6008091C00085FFE5
:1079C000FCCF1093C6008091C00085FFFCCF80E102
:1079D0008093C6001F910895E0910401F091050184
:1079E00009951F9108950E94763C803241F0809164
:1079F00003018F5F80930301853081F008958091AA
:107A0000C00085FFFCCF84E18093C6008091C00058
:107A100085FFFCCF80E18093C6000895E0910401CA
:107A2000F09105010995089548EC50E08823A1F0F4
:107A30002D9A28EE33E0FA013197F1F721503040CA
:107A4000D1F72D9828EE33E0FA013197F1F7215064
:107A50003040D1F7815061F708953F924F925F9285
:107A60006F927F928F929F92AF92BF92CF92DF924E
:107A7000EF92FF920F931F93CF93DF93000082E06A
:107A80008093C00080E18093C4001092C50088E11B
:107A90008093C10086E08093C2005098589A259A3E
:107AA00081E00E94143D24E1F22E9EE1E92E85E959
:107AB000D82E0FE0C02E10E1B12EAA24A394B1E479
:107AC0009B2EA6E58A2EF2E57F2EE0E26E2E79E46B
:107AD000572E63E5462E50E5352E0E94763C8033C6
:107AE000B1F18133B9F1803409F46FC0813409F404
:107AF00076C0823409F485C0853409F488C08035A5
:107B000031F1823521F1813511F1853509F485C0D6
:107B1000863509F48DC0843609F496C0843709F49B
:107B200003C1853709F472C1863709F466C08091B4
:107B300003018F5F80930301853079F6E0910401A2
:107B4000F091050109950E94763C803351F60E9420
:107B5000F33CC3CF0E94763C803249F78091C0004D
:107B600085FFFCCFF092C6008091C00085FFFCCF5E
:107B70009092C6008091C00085FFFCCF8092C60025
:107B80008091C00085FFFCCF7092C6008091C0003C
:107B900085FFFCCF6092C6008091C00085FFFCCFBE
:107BA0005092C6008091C00085FFFCCF4092C60075
:107BB0008091C00085FFFCCF3092C6008091C0004C
:107BC00085FFFCCFB092C60088CF0E94763C8638F5
:107BD00008F4BDCF0E94763C0E94F33C7ECF0E9409
:107BE000763C803809F49CC0813809F40BC1823896
:107BF00009F430C1883909F48FC080E00E94C73C85
:107C00006CCF84E10E94BD3C0E94F33C66CF85E0CE
:107C10000E94BD3C0E94F33C60CF0E94763C809362
:107C200006010E94763C809307010E94F33C55CFE9
:107C30000E94763C803309F411C183E00E94BD3C70
:107C400080E00E94C73C49CF0E94763C80930902A5
:107C50000E94763C8093080280910C028E7F809374
:107C60000C020E94763C853409F409C18091080217
:107C700090910902892B89F000E010E00E94763C87
:107C8000F801E85FFE4F80830F5F1F4F809108026D
:107C9000909109020817190788F30E94763C8032F8
:107CA00009F045CF80910C0280FFF5C0609106017C
:107CB00070910701660F771F7093070160930601AB
:107CC000A0910802B09109021097C9F0E8E0F1E034
:107CD0009B01AD014E0F5F1FF999FECF32BD21BD53
:107CE000819180BDFA9AF99A2F5F3F4FE417F5070B
:107CF00099F76A0F7B1F70930701609306018091CB
:107D0000C00085FFFCCFF092C6008091C00085FFC7
:107D1000FCCFB092C600E1CE83E00E94C73CDDCE2E
:107D200082E00E94C73CD9CE0E94763C8093090233
:107D30000E94763C80930802809106019091070191
:107D4000880F991F90930701809306010E94763C4B
:107D5000853409F49AC080910C028E7F80930C02C6
:107D60000E94763C803209F0B8CE8091C00085FF39
:107D7000FCCFF092C600A0910802B09109021097C2
:107D8000C1F180910C02082F0170182F1695117007
:107D9000E0910601F0910701AF014F5F5F4FBA011B
:107DA00020E030E00023B1F4112339F49491809164
:107DB000C00085FFFCCF9093C6002F5F3F4FCB01E3
:107DC0000196FA012A173B0780F4BC014F5F5F4F11
:107DD000002351F3F999FECFF2BDE1BDF89A90B5B9
:107DE0008091C00085FFFCCFE6CF709307016093C0
:107DF00006018091C00085FDE5CE8091C00085FF21
:107E0000F8CFE0CE81E00E94C73C67CE0E94763C6E
:107E1000803209F08CCE8091C00085FFFCCFF092BB
:107E2000C6008091C00085FFFCCFE092C600809123
:107E3000C00085FFFCCFD092C6008091C00085FFB6
:107E4000FCCFC092C6008091C00085FFFCCFB092ED
:107E5000C60043CE80E10E94C73C3FCE0E94763CE4
:107E60000E94763C182F0E94763C112309F483C0AF
:107E7000113009F484C08FE00E94C73C2ECE80915F
:107E80000C02816080930C02F1CE80910C02816023
:107E900080930C0265CF809107018823880F880B9F
:107EA0008A2180930B028091060190910701880F2F
:107EB000991F90930701809306018091080280FF2B
:107EC00009C08091080290910902019690930902DD
:107ED00080930802F894F999FECF1127E0910601EA
:107EE000F0910701C8E0D1E0809108029091090269
:107EF000103091F40091570001700130D9F303E084
:107F000000935700E8950091570001700130D9F3B4
:107F100001E100935700E8950990199000915700EE
:107F200001700130D9F301E000935700E8951395F3
:107F3000103498F011270091570001700130D9F3E7
:107F400005E000935700E89500915700017001305B
:107F5000D9F301E100935700E8953296029709F0B2
:107F6000C7CF103011F00296E5CF11248091C000E8
:107F700085FFC5CEC8CE8EE10E94C73CAECD85E957
:0A7F80000E94C73CAACDF894FFCF81
:027F8A00800075
:040000030000780081
:00000001FF
